{
  "contractName": "designVoting",
  "abi": [
    {
      "anonymous": false,
      "inputs": [
        {
          "indexed": true,
          "internalType": "address",
          "name": "player",
          "type": "address"
        },
        {
          "indexed": false,
          "internalType": "uint256",
          "name": "amount",
          "type": "uint256"
        }
      ],
      "name": "TokensClaimed",
      "type": "event"
    },
    {
      "anonymous": false,
      "inputs": [
        {
          "indexed": false,
          "internalType": "bytes32",
          "name": "file_hash",
          "type": "bytes32"
        },
        {
          "indexed": false,
          "internalType": "uint256",
          "name": "design_number",
          "type": "uint256"
        },
        {
          "indexed": false,
          "internalType": "address",
          "name": "creator",
          "type": "address"
        }
      ],
      "name": "newDesignAvailable",
      "type": "event"
    },
    {
      "anonymous": false,
      "inputs": [
        {
          "indexed": false,
          "internalType": "address",
          "name": "player_address",
          "type": "address"
        },
        {
          "indexed": false,
          "internalType": "bool",
          "name": "status",
          "type": "bool"
        }
      ],
      "name": "newPlayerAddition",
      "type": "event"
    },
    {
      "anonymous": false,
      "inputs": [
        {
          "indexed": false,
          "internalType": "address",
          "name": "player_address",
          "type": "address"
        },
        {
          "indexed": false,
          "internalType": "uint256",
          "name": "design_number",
          "type": "uint256"
        },
        {
          "indexed": false,
          "internalType": "bool",
          "name": "status",
          "type": "bool"
        }
      ],
      "name": "newPlayerRegistration",
      "type": "event"
    },
    {
      "anonymous": false,
      "inputs": [
        {
          "indexed": false,
          "internalType": "address",
          "name": "printer",
          "type": "address"
        },
        {
          "indexed": false,
          "internalType": "bytes32",
          "name": "name",
          "type": "bytes32"
        }
      ],
      "name": "newPrinterAddition",
      "type": "event"
    },
    {
      "anonymous": false,
      "inputs": [
        {
          "indexed": false,
          "internalType": "uint256",
          "name": "design_number",
          "type": "uint256"
        },
        {
          "indexed": false,
          "internalType": "address",
          "name": "player_address",
          "type": "address"
        }
      ],
      "name": "playerCommitted",
      "type": "event"
    },
    {
      "anonymous": false,
      "inputs": [
        {
          "indexed": false,
          "internalType": "uint256",
          "name": "design_number",
          "type": "uint256"
        },
        {
          "indexed": false,
          "internalType": "address",
          "name": "player_address",
          "type": "address"
        }
      ],
      "name": "playerDesignReceived",
      "type": "event"
    },
    {
      "anonymous": false,
      "inputs": [
        {
          "indexed": false,
          "internalType": "uint256",
          "name": "design_number",
          "type": "uint256"
        },
        {
          "indexed": false,
          "internalType": "address",
          "name": "player_address",
          "type": "address"
        }
      ],
      "name": "playerRevealed",
      "type": "event"
    },
    {
      "anonymous": false,
      "inputs": [
        {
          "indexed": false,
          "internalType": "uint256",
          "name": "design_number",
          "type": "uint256"
        },
        {
          "indexed": false,
          "internalType": "address",
          "name": "player_address",
          "type": "address"
        },
        {
          "indexed": false,
          "internalType": "address",
          "name": "printer_address",
          "type": "address"
        }
      ],
      "name": "proofAdded",
      "type": "event"
    },
    {
      "anonymous": false,
      "inputs": [
        {
          "indexed": false,
          "internalType": "bytes32",
          "name": "file_hash",
          "type": "bytes32"
        },
        {
          "indexed": false,
          "internalType": "uint256",
          "name": "design_number",
          "type": "uint256"
        },
        {
          "indexed": false,
          "internalType": "address",
          "name": "creator",
          "type": "address"
        }
      ],
      "name": "resultCalculated",
      "type": "event"
    },
    {
      "anonymous": false,
      "inputs": [
        {
          "indexed": false,
          "internalType": "address",
          "name": "_output",
          "type": "address"
        }
      ],
      "name": "tempOutput",
      "type": "event"
    },
    {
      "anonymous": false,
      "inputs": [
        {
          "indexed": false,
          "internalType": "int256",
          "name": "result",
          "type": "int256"
        }
      ],
      "name": "votingResult",
      "type": "event"
    },
    {
      "inputs": [],
      "name": "ContractToken",
      "outputs": [
        {
          "internalType": "contract TestToken",
          "name": "",
          "type": "address"
        }
      ],
      "stateMutability": "view",
      "type": "function",
      "constant": true
    },
    {
      "inputs": [],
      "name": "SaleContract",
      "outputs": [
        {
          "internalType": "contract AntoTokenSale",
          "name": "",
          "type": "address"
        }
      ],
      "stateMutability": "view",
      "type": "function",
      "constant": true
    },
    {
      "inputs": [
        {
          "internalType": "bytes32",
          "name": "_fileHash",
          "type": "bytes32"
        },
        {
          "internalType": "uint256",
          "name": "_timestamp",
          "type": "uint256"
        },
        {
          "internalType": "uint256",
          "name": "_commitment",
          "type": "uint256"
        },
        {
          "internalType": "uint256",
          "name": "_taur",
          "type": "uint256"
        },
        {
          "internalType": "uint256",
          "name": "_taup",
          "type": "uint256"
        },
        {
          "internalType": "uint256",
          "name": "_deltaExp",
          "type": "uint256"
        },
        {
          "internalType": "uint256",
          "name": "_deltaReveal",
          "type": "uint256"
        }
      ],
      "name": "announce",
      "outputs": [],
      "stateMutability": "payable",
      "type": "function",
      "payable": true
    },
    {
      "inputs": [],
      "name": "getNumDesignes",
      "outputs": [
        {
          "internalType": "uint256",
          "name": "",
          "type": "uint256"
        }
      ],
      "stateMutability": "view",
      "type": "function",
      "constant": true
    },
    {
      "inputs": [
        {
          "internalType": "uint256",
          "name": "_index",
          "type": "uint256"
        }
      ],
      "name": "getDesigne",
      "outputs": [
        {
          "components": [
            {
              "internalType": "bytes32",
              "name": "filehash",
              "type": "bytes32"
            },
            {
              "internalType": "address",
              "name": "vendor",
              "type": "address"
            },
            {
              "internalType": "uint256",
              "name": "timestamp",
              "type": "uint256"
            },
            {
              "internalType": "uint256",
              "name": "balance",
              "type": "uint256"
            },
            {
              "internalType": "address",
              "name": "manager",
              "type": "address"
            },
            {
              "internalType": "uint256",
              "name": "status",
              "type": "uint256"
            },
            {
              "internalType": "uint256",
              "name": "taup",
              "type": "uint256"
            },
            {
              "internalType": "uint256",
              "name": "taur",
              "type": "uint256"
            },
            {
              "internalType": "uint256",
              "name": "deltaExp",
              "type": "uint256"
            },
            {
              "internalType": "uint256",
              "name": "deltaReveal",
              "type": "uint256"
            },
            {
              "internalType": "int256",
              "name": "result",
              "type": "int256"
            }
          ],
          "internalType": "struct designVoting.designState",
          "name": "",
          "type": "tuple"
        }
      ],
      "stateMutability": "view",
      "type": "function",
      "constant": true
    },
    {
      "inputs": [
        {
          "internalType": "bytes32",
          "name": "_hashMsg",
          "type": "bytes32"
        },
        {
          "internalType": "bytes",
          "name": "_signature",
          "type": "bytes"
        }
      ],
      "name": "addPlayer",
      "outputs": [],
      "stateMutability": "nonpayable",
      "type": "function"
    },
    {
      "inputs": [],
      "name": "getNumPlayers",
      "outputs": [
        {
          "internalType": "uint256",
          "name": "",
          "type": "uint256"
        }
      ],
      "stateMutability": "view",
      "type": "function",
      "constant": true
    },
    {
      "inputs": [],
      "name": "getPlayerAddresses",
      "outputs": [
        {
          "internalType": "address[]",
          "name": "",
          "type": "address[]"
        }
      ],
      "stateMutability": "view",
      "type": "function",
      "constant": true
    },
    {
      "inputs": [
        {
          "internalType": "address",
          "name": "_playerAddress",
          "type": "address"
        }
      ],
      "name": "getPlayerDetails",
      "outputs": [
        {
          "internalType": "int256",
          "name": "",
          "type": "int256"
        },
        {
          "internalType": "uint256",
          "name": "",
          "type": "uint256"
        },
        {
          "internalType": "uint256",
          "name": "",
          "type": "uint256"
        }
      ],
      "stateMutability": "view",
      "type": "function",
      "constant": true
    },
    {
      "inputs": [
        {
          "internalType": "address",
          "name": "_playerAddress",
          "type": "address"
        },
        {
          "internalType": "uint256",
          "name": "_designNo",
          "type": "uint256"
        }
      ],
      "name": "getPlayerCommitment",
      "outputs": [
        {
          "internalType": "bytes32",
          "name": "",
          "type": "bytes32"
        }
      ],
      "stateMutability": "view",
      "type": "function",
      "constant": true
    },
    {
      "inputs": [
        {
          "internalType": "address",
          "name": "_playerAddress",
          "type": "address"
        },
        {
          "internalType": "uint256",
          "name": "_designNo",
          "type": "uint256"
        }
      ],
      "name": "getPlayerVote",
      "outputs": [
        {
          "internalType": "int256",
          "name": "",
          "type": "int256"
        }
      ],
      "stateMutability": "view",
      "type": "function",
      "constant": true
    },
    {
      "inputs": [
        {
          "internalType": "address",
          "name": "_playerAddress",
          "type": "address"
        },
        {
          "internalType": "uint256",
          "name": "_designNo",
          "type": "uint256"
        }
      ],
      "name": "isFileReceived",
      "outputs": [
        {
          "internalType": "bool",
          "name": "",
          "type": "bool"
        }
      ],
      "stateMutability": "view",
      "type": "function",
      "constant": true
    },
    {
      "inputs": [
        {
          "internalType": "bytes32",
          "name": "_hashMsg",
          "type": "bytes32"
        },
        {
          "internalType": "bytes",
          "name": "_signature",
          "type": "bytes"
        },
        {
          "internalType": "uint256",
          "name": "_designNo",
          "type": "uint256"
        },
        {
          "internalType": "uint256",
          "name": "_commitment",
          "type": "uint256"
        }
      ],
      "name": "register",
      "outputs": [],
      "stateMutability": "payable",
      "type": "function",
      "payable": true
    },
    {
      "inputs": [
        {
          "internalType": "uint256",
          "name": "_designNo",
          "type": "uint256"
        }
      ],
      "name": "getNumRegPlayers",
      "outputs": [
        {
          "internalType": "uint256",
          "name": "",
          "type": "uint256"
        }
      ],
      "stateMutability": "view",
      "type": "function",
      "constant": true
    },
    {
      "inputs": [
        {
          "internalType": "uint256",
          "name": "_designNo",
          "type": "uint256"
        }
      ],
      "name": "getRegPlayerAddresses",
      "outputs": [
        {
          "internalType": "address[]",
          "name": "",
          "type": "address[]"
        }
      ],
      "stateMutability": "view",
      "type": "function",
      "constant": true
    },
    {
      "inputs": [
        {
          "internalType": "uint256",
          "name": "_designNo",
          "type": "uint256"
        },
        {
          "internalType": "address",
          "name": "_playerAddress",
          "type": "address"
        }
      ],
      "name": "setReceived",
      "outputs": [],
      "stateMutability": "payable",
      "type": "function",
      "payable": true
    },
    {
      "inputs": [
        {
          "internalType": "uint256",
          "name": "_designNo",
          "type": "uint256"
        },
        {
          "internalType": "bytes32",
          "name": "_cryptoCommitment",
          "type": "bytes32"
        },
        {
          "internalType": "uint256",
          "name": "_timestamp",
          "type": "uint256"
        }
      ],
      "name": "commit",
      "outputs": [],
      "stateMutability": "nonpayable",
      "type": "function"
    },
    {
      "inputs": [
        {
          "internalType": "uint256",
          "name": "_designNo",
          "type": "uint256"
        },
        {
          "internalType": "int256",
          "name": "_vote",
          "type": "int256"
        },
        {
          "internalType": "bytes32",
          "name": "_nonce",
          "type": "bytes32"
        },
        {
          "internalType": "uint256",
          "name": "_timestamp",
          "type": "uint256"
        }
      ],
      "name": "reveal",
      "outputs": [],
      "stateMutability": "nonpayable",
      "type": "function"
    },
    {
      "inputs": [
        {
          "internalType": "uint256",
          "name": "_designNo",
          "type": "uint256"
        },
        {
          "internalType": "uint256",
          "name": "_timestamp",
          "type": "uint256"
        }
      ],
      "name": "calculateResult",
      "outputs": [],
      "stateMutability": "nonpayable",
      "type": "function"
    },
    {
      "inputs": [
        {
          "internalType": "address",
          "name": "_printerAddr",
          "type": "address"
        },
        {
          "internalType": "bytes32",
          "name": "_make",
          "type": "bytes32"
        },
        {
          "internalType": "bytes32",
          "name": "_name",
          "type": "bytes32"
        },
        {
          "internalType": "uint256",
          "name": "_strength",
          "type": "uint256"
        },
        {
          "internalType": "uint256",
          "name": "_flexibility",
          "type": "uint256"
        },
        {
          "internalType": "uint256",
          "name": "_durability",
          "type": "uint256"
        },
        {
          "internalType": "uint256",
          "name": "_difficulty",
          "type": "uint256"
        },
        {
          "internalType": "int256",
          "name": "_printTemperature",
          "type": "int256"
        },
        {
          "internalType": "int256",
          "name": "_bedTemperature",
          "type": "int256"
        },
        {
          "internalType": "bool",
          "name": "_soluble",
          "type": "bool"
        },
        {
          "internalType": "bool",
          "name": "_foodSafety",
          "type": "bool"
        }
      ],
      "name": "addPrinter",
      "outputs": [],
      "stateMutability": "nonpayable",
      "type": "function"
    },
    {
      "inputs": [
        {
          "internalType": "address",
          "name": "_userAddress",
          "type": "address"
        }
      ],
      "name": "getUserPrinters",
      "outputs": [
        {
          "internalType": "address[]",
          "name": "",
          "type": "address[]"
        }
      ],
      "stateMutability": "view",
      "type": "function",
      "constant": true
    },
    {
      "inputs": [
        {
          "internalType": "address",
          "name": "_printerAddr",
          "type": "address"
        }
      ],
      "name": "getPrinterDetails",
      "outputs": [
        {
          "components": [
            {
              "internalType": "bytes32",
              "name": "make",
              "type": "bytes32"
            },
            {
              "internalType": "bytes32",
              "name": "name",
              "type": "bytes32"
            },
            {
              "internalType": "uint256",
              "name": "strength",
              "type": "uint256"
            },
            {
              "internalType": "uint256",
              "name": "flexibility",
              "type": "uint256"
            },
            {
              "internalType": "uint256",
              "name": "durability",
              "type": "uint256"
            },
            {
              "internalType": "uint256",
              "name": "difficulty",
              "type": "uint256"
            },
            {
              "internalType": "int256",
              "name": "printTemperature",
              "type": "int256"
            },
            {
              "internalType": "int256",
              "name": "bedTemperature",
              "type": "int256"
            },
            {
              "internalType": "bool",
              "name": "soluble",
              "type": "bool"
            },
            {
              "internalType": "bool",
              "name": "foodSafety",
              "type": "bool"
            }
          ],
          "internalType": "struct designVoting.printerDetails",
          "name": "",
          "type": "tuple"
        }
      ],
      "stateMutability": "view",
      "type": "function",
      "constant": true
    },
    {
      "inputs": [],
      "name": "getNumPrinters",
      "outputs": [
        {
          "internalType": "uint256",
          "name": "",
          "type": "uint256"
        }
      ],
      "stateMutability": "view",
      "type": "function",
      "constant": true
    },
    {
      "inputs": [
        {
          "internalType": "address",
          "name": "player",
          "type": "address"
        }
      ],
      "name": "getBalance",
      "outputs": [
        {
          "internalType": "uint256",
          "name": "amount",
          "type": "uint256"
        }
      ],
      "stateMutability": "view",
      "type": "function",
      "constant": true
    },
    {
      "inputs": [],
      "name": "claimTokens",
      "outputs": [],
      "stateMutability": "nonpayable",
      "type": "function"
    },
    {
      "inputs": [
        {
          "internalType": "address",
          "name": "_printerAddress",
          "type": "address"
        }
      ],
      "name": "get_printingProcess",
      "outputs": [
        {
          "components": [
            {
              "internalType": "uint256",
              "name": "startTimestamp",
              "type": "uint256"
            },
            {
              "internalType": "uint256",
              "name": "endTimestamp",
              "type": "uint256"
            },
            {
              "internalType": "bytes32",
              "name": "printingdataHash",
              "type": "bytes32"
            },
            {
              "internalType": "bytes32",
              "name": "designHash",
              "type": "bytes32"
            }
          ],
          "internalType": "struct designVoting.printingProcess",
          "name": "",
          "type": "tuple"
        }
      ],
      "stateMutability": "view",
      "type": "function",
      "constant": true
    },
    {
      "inputs": [
        {
          "internalType": "address",
          "name": "_printerAddress",
          "type": "address"
        },
        {
          "internalType": "uint256",
          "name": "startTimestamp",
          "type": "uint256"
        },
        {
          "internalType": "bytes32",
          "name": "designHash",
          "type": "bytes32"
        }
      ],
      "name": "printingBegin",
      "outputs": [],
      "stateMutability": "nonpayable",
      "type": "function"
    },
    {
      "inputs": [
        {
          "internalType": "address",
          "name": "_printerAddress",
          "type": "address"
        },
        {
          "internalType": "uint256",
          "name": "endTimestamp",
          "type": "uint256"
        },
        {
          "internalType": "bytes32",
          "name": "printingdataHash",
          "type": "bytes32"
        }
      ],
      "name": "end_of_printing",
      "outputs": [],
      "stateMutability": "nonpayable",
      "type": "function"
    },
    {
      "inputs": [
        {
          "internalType": "uint256",
          "name": "_designNo",
          "type": "uint256"
        },
        {
          "internalType": "address",
          "name": "_userAddress",
          "type": "address"
        },
        {
          "internalType": "address",
          "name": "_printerAddress",
          "type": "address"
        }
      ],
      "name": "isProofPresent",
      "outputs": [
        {
          "internalType": "bool",
          "name": "",
          "type": "bool"
        }
      ],
      "stateMutability": "view",
      "type": "function",
      "constant": true
    }
  ],
  "bytecode": "0x6080604052600060075534801561001557600080fd5b50615a6480620000266000396000f3fe6080604052600436106101c25760003560e01c80639fc70e35116100f7578063c8dd6ce711610095578063ee93a6fc11610064578063ee93a6fc14610651578063f8b2cb4f1461068e578063fbad1813146106cb578063fbc32c60146106f4576101c2565b8063c8dd6ce7146105a2578063c9e95974146105e1578063cb7b9f69146105fd578063edcb274314610628576101c2565b8063a65a9eca116100d1578063a65a9eca146104f7578063a67f4bf714610534578063ad498d7c1461055d578063c731b99214610586576101c2565b80639fc70e3514610452578063a121ba301461048f578063a5c6ea71146104ba576101c2565b806355c9e92611610164578063724d49241161013e578063724d4924146103945780638bcad672146103bf5780638c92e7d1146103ea5780639cb2f97214610415576101c2565b806355c9e926146103035780636b1672901461032e5780636fc4b2de1461036b576101c2565b80634ade5854116101a05780634ade585414610237578063511d53e814610260578063530930481461029d578063532af7d2146102da576101c2565b806307a9594a146101c757806310a51d9b146101e357806348c54b9d14610220575b600080fd5b6101e160048036038101906101dc9190613e29565b610731565b005b3480156101ef57600080fd5b5061020a60048036038101906102059190613bec565b610df3565b60405161021791906148e4565b60405180910390f35b34801561022c57600080fd5b50610235610ec0565b005b34801561024357600080fd5b5061025e60048036038101906102599190613d4d565b611033565b005b34801561026c57600080fd5b5061028760048036038101906102829190613d0d565b6111ca565b6040516102949190614921565b60405180910390f35b3480156102a957600080fd5b506102c460048036038101906102bf9190613f4e565b611228565b6040516102d19190614cc0565b60405180910390f35b3480156102e657600080fd5b5061030160048036038101906102fc91906140c8565b61135c565b005b34801561030f57600080fd5b50610318612112565b6040516103259190614d13565b60405180910390f35b34801561033a57600080fd5b5061035560048036038101906103509190613bec565b61211f565b6040516103629190614cdc565b60405180910390f35b34801561037757600080fd5b50610392600480360381019061038d9190613dcd565b6121ff565b005b3480156103a057600080fd5b506103a96124f6565b6040516103b691906148e4565b60405180910390f35b3480156103cb57600080fd5b506103d4612584565b6040516103e19190614d13565b60405180910390f35b3480156103f657600080fd5b506103ff61258e565b60405161040c91906149d3565b60405180910390f35b34801561042157600080fd5b5061043c60048036038101906104379190613bec565b6125b2565b6040516104499190614cf8565b60405180910390f35b34801561045e57600080fd5b5061047960048036038101906104749190613d0d565b612633565b6040516104869190614906565b60405180910390f35b34801561049b57600080fd5b506104a461269e565b6040516104b19190614d13565b60405180910390f35b3480156104c657600080fd5b506104e160048036038101906104dc9190613fbb565b6126ab565b6040516104ee9190614906565b60405180910390f35b34801561050357600080fd5b5061051e60048036038101906105199190613f4e565b612751565b60405161052b9190614d13565b60405180910390f35b34801561054057600080fd5b5061055b60048036038101906105569190613d4d565b612771565b005b34801561056957600080fd5b50610584600480360381019061057f9190614061565b612908565b005b6105a0600480360381019061059b9190613eac565b612af7565b005b3480156105ae57600080fd5b506105c960048036038101906105c49190613bec565b612ed6565b6040516105d893929190614a09565b60405180910390f35b6105fb60048036038101906105f69190613f7b565b612fb1565b005b34801561060957600080fd5b50610612613167565b60405161061f91906149b8565b60405180910390f35b34801561063457600080fd5b5061064f600480360381019061064a9190613c19565b61318d565b005b34801561065d57600080fd5b5061067860048036038101906106739190613d0d565b613689565b60405161068591906149ee565b60405180910390f35b34801561069a57600080fd5b506106b560048036038101906106b09190613bec565b6136e7565b6040516106c29190614d13565b60405180910390f35b3480156106d757600080fd5b506106f260048036038101906106ed919061400e565b613733565b005b34801561070057600080fd5b5061071b60048036038101906107169190613f4e565b6138ea565b60405161072891906148e4565b60405180910390f35b6001600960003373ffffffffffffffffffffffffffffffffffffffff1673ffffffffffffffffffffffffffffffffffffffff16815260200190815260200160002054146107b3576040517f08c379a00000000000000000000000000000000000000000000000000000000081526004016107aa90614b60565b60405180910390fd5b60008060006107c18661398b565b92509250925060006040518060400160405280601c81526020017f19457468657265756d205369676e6564204d6573736167653a0a333200000000815250905060008189604051602001610816929190614781565b6040516020818303038152906040528051906020012090503373ffffffffffffffffffffffffffffffffffffffff16600182878787604051600081526020016040526040516108689493929190614973565b6020604051602081039080840390855afa15801561088a573d6000803e3d6000fd5b5050506020604051035173ffffffffffffffffffffffffffffffffffffffff16146108ea576040517f08c379a00000000000000000000000000000000000000000000000000000000081526004016108e190614b20565b60405180910390fd5b6000861161092d576040517f08c379a000000000000000000000000000000000000000000000000000000000815260040161092490614be0565b60405180910390fd5b85341461096f576040517f08c379a000000000000000000000000000000000000000000000000000000000815260040161096690614ac0565b60405180910390fd5b60066000888152602001908152602001600020600601548610156109c8576040517f08c379a00000000000000000000000000000000000000000000000000000000081526004016109bf90614ae0565b60405180910390fd5b60066000888152602001908152602001600020600701546006600089815260200190815260200160002060030154610a009190614fa3565b600560008981526020019081526020016000208054905010610a57576040517f08c379a0000000000000000000000000000000000000000000000000000000008152600401610a4e90614ca0565b60405180910390fd5b60006004600089815260200190815260200160002060003373ffffffffffffffffffffffffffffffffffffffff1673ffffffffffffffffffffffffffffffffffffffff1681526020019081526020016000205414610aea576040517f08c379a0000000000000000000000000000000000000000000000000000000008152600401610ae190614a80565b60405180910390fd5b60008054906101000a900473ffffffffffffffffffffffffffffffffffffffff1673ffffffffffffffffffffffffffffffffffffffff1663a9059cbb600160009054906101000a900473ffffffffffffffffffffffffffffffffffffffff16886040518363ffffffff1660e01b8152600401610b67929190614884565b602060405180830381600087803b158015610b8157600080fd5b505af1158015610b95573d6000803e3d6000fd5b505050506040513d601f19601f82011682018060405250810190610bb99190613da0565b5060016004600089815260200190815260200160002060003373ffffffffffffffffffffffffffffffffffffffff1673ffffffffffffffffffffffffffffffffffffffff1681526020019081526020016000208190555060056000888152602001908152602001600020339080600181540180825580915050600190039060005260206000200160009091909190916101000a81548173ffffffffffffffffffffffffffffffffffffffff021916908373ffffffffffffffffffffffffffffffffffffffff16021790555034600860003373ffffffffffffffffffffffffffffffffffffffff1673ffffffffffffffffffffffffffffffffffffffff1681526020019081526020016000206006016000828254610cd69190614eac565b9250508190555060106000888152602001908152602001600020600201339080600181540180825580915050600190039060005260206000200160009091909190916101000a81548173ffffffffffffffffffffffffffffffffffffffff021916908373ffffffffffffffffffffffffffffffffffffffff160217905550856010600089815260200190815260200160002060010160003373ffffffffffffffffffffffffffffffffffffffff1673ffffffffffffffffffffffffffffffffffffffff168152602001908152602001600020819055507f5f142c525761e989ef9a126c95a342ee74c720a7272ea67127ed34660df2d7dc33886001604051610de0939291906148ad565b60405180910390a1505050505050505050565b6060600f60008373ffffffffffffffffffffffffffffffffffffffff1673ffffffffffffffffffffffffffffffffffffffff168152602001908152602001600020805480602002602001604051908101604052809291908181526020018280548015610eb457602002820191906000526020600020905b8160009054906101000a900473ffffffffffffffffffffffffffffffffffffffff1673ffffffffffffffffffffffffffffffffffffffff1681526020019060010190808311610e6a575b50505050509050919050565b6000610ecb336136e7565b905060008111610f10576040517f08c379a0000000000000000000000000000000000000000000000000000000008152600401610f0790614b00565b60405180910390fd5b60008054906101000a900473ffffffffffffffffffffffffffffffffffffffff1673ffffffffffffffffffffffffffffffffffffffff166323b872dd600160009054906101000a900473ffffffffffffffffffffffffffffffffffffffff1633846040518463ffffffff1660e01b8152600401610f8f939291906147fb565b602060405180830381600087803b158015610fa957600080fd5b505af1158015610fbd573d6000803e3d6000fd5b505050506040513d601f19601f82011682018060405250810190610fe19190613da0565b503373ffffffffffffffffffffffffffffffffffffffff167f896e034966eaaf1adc54acc0f257056febbd300c9e47182cf761982cf1f5e430826040516110289190614d13565b60405180910390a250565b6001600960003373ffffffffffffffffffffffffffffffffffffffff1673ffffffffffffffffffffffffffffffffffffffff16815260200190815260200160002054146110b5576040517f08c379a00000000000000000000000000000000000000000000000000000000081526004016110ac90614c40565b60405180910390fd5b6001600c60008573ffffffffffffffffffffffffffffffffffffffff1673ffffffffffffffffffffffffffffffffffffffff1681526020019081526020016000205414611137576040517f08c379a000000000000000000000000000000000000000000000000000000000815260040161112e90614b80565b60405180910390fd5b81600e60008573ffffffffffffffffffffffffffffffffffffffff1673ffffffffffffffffffffffffffffffffffffffff1681526020019081526020016000206001018190555080600e60008573ffffffffffffffffffffffffffffffffffffffff1673ffffffffffffffffffffffffffffffffffffffff16815260200190815260200160002060020181905550505050565b6000600860008473ffffffffffffffffffffffffffffffffffffffff1673ffffffffffffffffffffffffffffffffffffffff168152602001908152602001600020600201600083815260200190815260200160002054905092915050565b6112306139ea565b6006600083815260200190815260200160002060405180610160016040529081600082015481526020016001820160009054906101000a900473ffffffffffffffffffffffffffffffffffffffff1673ffffffffffffffffffffffffffffffffffffffff1673ffffffffffffffffffffffffffffffffffffffff16815260200160028201548152602001600382015481526020016004820160009054906101000a900473ffffffffffffffffffffffffffffffffffffffff1673ffffffffffffffffffffffffffffffffffffffff1673ffffffffffffffffffffffffffffffffffffffff1681526020016005820154815260200160068201548152602001600782015481526020016008820154815260200160098201548152602001600a820154815250509050919050565b60006006600084815260200190815260200160002060050154146113b5576040517f08c379a00000000000000000000000000000000000000000000000000000000081526004016113ac90614bc0565b60405180910390fd5b6006600083815260200190815260200160002060090154600660008481526020019081526020016000206008015460066000858152602001908152602001600020600201546114049190614eac565b61140e9190614eac565b811161144f576040517f08c379a000000000000000000000000000000000000000000000000000000000815260040161144690614a60565b60405180910390fd5b60008060005b60056000868152602001908152602001600020805490508110156117a9576008600060056000888152602001908152602001600020838154811061149c5761149b61532f565b5b9060005260206000200160009054906101000a900473ffffffffffffffffffffffffffffffffffffffff1673ffffffffffffffffffffffffffffffffffffffff1673ffffffffffffffffffffffffffffffffffffffff168152602001908152602001600020600001546008600060056000898152602001908152602001600020848154811061152e5761152d61532f565b5b9060005260206000200160009054906101000a900473ffffffffffffffffffffffffffffffffffffffff1673ffffffffffffffffffffffffffffffffffffffff1673ffffffffffffffffffffffffffffffffffffffff1681526020019081526020016000206001015460086000600560008a815260200190815260200160002085815481106115c0576115bf61532f565b5b9060005260206000200160009054906101000a900473ffffffffffffffffffffffffffffffffffffffff1673ffffffffffffffffffffffffffffffffffffffff1673ffffffffffffffffffffffffffffffffffffffff1681526020019081526020016000206003016000888152602001908152602001600020546116449190614fd4565b61164e9190614fd4565b836116599190614e18565b9250600860006005600088815260200190815260200160002083815481106116845761168361532f565b5b9060005260206000200160009054906101000a900473ffffffffffffffffffffffffffffffffffffffff1673ffffffffffffffffffffffffffffffffffffffff1673ffffffffffffffffffffffffffffffffffffffff16815260200190815260200160002060000154600860006005600089815260200190815260200160002084815481106117165761171561532f565b5b9060005260206000200160009054906101000a900473ffffffffffffffffffffffffffffffffffffffff1673ffffffffffffffffffffffffffffffffffffffff1673ffffffffffffffffffffffffffffffffffffffff168152602001908152602001600020600101546117899190614fd4565b826117949190614e18565b915080806117a190615243565b915050611455565b5060008160026117b99190614fd4565b82846117c59190614e18565b6117cf9190614f39565b905060008260026117e09190614fd4565b83856117ec9190614e18565b6117f691906152a0565b9050600060018314806118095750838212155b1561182f57600160066000898152602001908152602001600020600a0181905550611874565b83821215611873577fffffffffffffffffffffffffffffffffffffffffffffffffffffffffffffffff60066000898152602001908152602001600020600a01819055505b5b60066000888152602001908152602001600020600a0154905060005b6005600089815260200190815260200160002080549050811015611dc257600060086000600560008c815260200190815260200160002084815481106118d9576118d861532f565b5b9060005260206000200160009054906101000a900473ffffffffffffffffffffffffffffffffffffffff1673ffffffffffffffffffffffffffffffffffffffff1673ffffffffffffffffffffffffffffffffffffffff16815260200190815260200160002060030160008a8152602001908152602001600020541315611c08578160086000600560008c815260200190815260200160002084815481106119835761198261532f565b5b9060005260206000200160009054906101000a900473ffffffffffffffffffffffffffffffffffffffff1673ffffffffffffffffffffffffffffffffffffffff1673ffffffffffffffffffffffffffffffffffffffff16815260200190815260200160002060030160008a815260200190815260200160002054611a079190614fd4565b60086000600560008c81526020019081526020016000208481548110611a3057611a2f61532f565b5b9060005260206000200160009054906101000a900473ffffffffffffffffffffffffffffffffffffffff1673ffffffffffffffffffffffffffffffffffffffff1673ffffffffffffffffffffffffffffffffffffffff1681526020019081526020016000206000016000828254611aa79190614e18565b925050819055508160086000600560008c81526020019081526020016000208481548110611ad857611ad761532f565b5b9060005260206000200160009054906101000a900473ffffffffffffffffffffffffffffffffffffffff1673ffffffffffffffffffffffffffffffffffffffff1673ffffffffffffffffffffffffffffffffffffffff16815260200190815260200160002060030160008a815260200190815260200160002054611b5c9190614fd4565b60086000600560008c81526020019081526020016000208481548110611b8557611b8461532f565b5b9060005260206000200160009054906101000a900473ffffffffffffffffffffffffffffffffffffffff1673ffffffffffffffffffffffffffffffffffffffff1673ffffffffffffffffffffffffffffffffffffffff1681526020019081526020016000206001016000828254611bfc9190614eac565b92505081905550611daf565b817fffffffffffffffffffffffffffffffffffffffffffffffffffffffffffffffff611c349190614fd4565b60086000600560008c81526020019081526020016000208481548110611c5d57611c5c61532f565b5b9060005260206000200160009054906101000a900473ffffffffffffffffffffffffffffffffffffffff1673ffffffffffffffffffffffffffffffffffffffff1673ffffffffffffffffffffffffffffffffffffffff1681526020019081526020016000206000016000828254611cd49190614e18565b92505081905550817fffffffffffffffffffffffffffffffffffffffffffffffffffffffffffffffff611d079190614fd4565b60086000600560008c81526020019081526020016000208481548110611d3057611d2f61532f565b5b9060005260206000200160009054906101000a900473ffffffffffffffffffffffffffffffffffffffff1673ffffffffffffffffffffffffffffffffffffffff1673ffffffffffffffffffffffffffffffffffffffff1681526020019081526020016000206001016000828254611da79190614eac565b925050819055505b8080611dba90615243565b915050611890565b5060005b60056000898152602001908152602001600020805490508110156120b55760018260086000600560008d81526020019081526020016000208581548110611e1057611e0f61532f565b5b9060005260206000200160009054906101000a900473ffffffffffffffffffffffffffffffffffffffff1673ffffffffffffffffffffffffffffffffffffffff1673ffffffffffffffffffffffffffffffffffffffff16815260200190815260200160002060030160008b815260200190815260200160002054611e949190614fd4565b1415611fa057600660008981526020019081526020016000206007015460086000600560008c81526020019081526020016000208481548110611eda57611ed961532f565b5b9060005260206000200160009054906101000a900473ffffffffffffffffffffffffffffffffffffffff1673ffffffffffffffffffffffffffffffffffffffff1673ffffffffffffffffffffffffffffffffffffffff1681526020019081526020016000206006016000828254611f519190614eac565b925050819055506006600089815260200190815260200160002060070154600660008a81526020019081526020016000206003016000828254611f9491906150eb565b925050819055506120a2565b600660008981526020019081526020016000206006015460086000600560008c81526020019081526020016000208481548110611fe057611fdf61532f565b5b9060005260206000200160009054906101000a900473ffffffffffffffffffffffffffffffffffffffff1673ffffffffffffffffffffffffffffffffffffffff1673ffffffffffffffffffffffffffffffffffffffff168152602001908152602001600020600601600082825461205791906150eb565b925050819055506006600089815260200190815260200160002060060154600660008a8152602001908152602001600020600301600082825461209a9190614eac565b925050819055505b80806120ad90615243565b915050611dc6565b50600160066000898152602001908152602001600020600501819055507fbd9785037e1262e9a00f3274afb543f70050db0c0a99864959f281c5348621e98160405161210191906149ee565b60405180910390a150505050505050565b6000600a80549050905090565b612127613a73565b600b60008373ffffffffffffffffffffffffffffffffffffffff1673ffffffffffffffffffffffffffffffffffffffff1681526020019081526020016000206040518061014001604052908160008201548152602001600182015481526020016002820154815260200160038201548152602001600482015481526020016005820154815260200160068201548152602001600782015481526020016008820160009054906101000a900460ff161515151581526020016008820160019054906101000a900460ff1615151515815250509050919050565b600080600061220d8461398b565b92509250925060008560405160200161222691906147d5565b6040516020818303038152906040528051906020012090503373ffffffffffffffffffffffffffffffffffffffff16600182868686604051600081526020016040526040516122789493929190614973565b6020604051602081039080840390855afa15801561229a573d6000803e3d6000fd5b5050506020604051035173ffffffffffffffffffffffffffffffffffffffff16146122fa576040517f08c379a00000000000000000000000000000000000000000000000000000000081526004016122f190614b20565b60405180910390fd5b6000600960003373ffffffffffffffffffffffffffffffffffffffff1673ffffffffffffffffffffffffffffffffffffffff168152602001908152602001600020541461237c576040517f08c379a000000000000000000000000000000000000000000000000000000000815260040161237390614ba0565b60405180910390fd5b600a339080600181540180825580915050600190039060005260206000200160009091909190916101000a81548173ffffffffffffffffffffffffffffffffffffffff021916908373ffffffffffffffffffffffffffffffffffffffff1602179055506001600960003373ffffffffffffffffffffffffffffffffffffffff1673ffffffffffffffffffffffffffffffffffffffff168152602001908152602001600020819055506001600860003373ffffffffffffffffffffffffffffffffffffffff1673ffffffffffffffffffffffffffffffffffffffff168152602001908152602001600020600001819055506001600860003373ffffffffffffffffffffffffffffffffffffffff1673ffffffffffffffffffffffffffffffffffffffff168152602001908152602001600020600101819055507f668925a7bc9acb2eb96b835fa199914e30573a7a74ab45e2bb2711f31536ce053360016040516124e6929190614832565b60405180910390a1505050505050565b6060600a80548060200260200160405190810160405280929190818152602001828054801561257a57602002820191906000526020600020905b8160009054906101000a900473ffffffffffffffffffffffffffffffffffffffff1673ffffffffffffffffffffffffffffffffffffffff1681526020019060010190808311612530575b5050505050905090565b6000600754905090565b60008054906101000a900473ffffffffffffffffffffffffffffffffffffffff1681565b6125ba613ad0565b600e60008373ffffffffffffffffffffffffffffffffffffffff1673ffffffffffffffffffffffffffffffffffffffff1681526020019081526020016000206040518060800160405290816000820154815260200160018201548152602001600282015481526020016003820154815250509050919050565b6000600860008473ffffffffffffffffffffffffffffffffffffffff1673ffffffffffffffffffffffffffffffffffffffff168152602001908152602001600020600401600083815260200190815260200160002060009054906101000a900460ff16905092915050565b6000600d80549050905090565b60006003600085815260200190815260200160002060008473ffffffffffffffffffffffffffffffffffffffff1673ffffffffffffffffffffffffffffffffffffffff16815260200190815260200160002060008373ffffffffffffffffffffffffffffffffffffffff1673ffffffffffffffffffffffffffffffffffffffff16815260200190815260200160002060009054906101000a900460ff1690509392505050565b600060056000838152602001908152602001600020805490509050919050565b6001600960003373ffffffffffffffffffffffffffffffffffffffff1673ffffffffffffffffffffffffffffffffffffffff16815260200190815260200160002054146127f3576040517f08c379a00000000000000000000000000000000000000000000000000000000081526004016127ea90614c40565b60405180910390fd5b6001600c60008573ffffffffffffffffffffffffffffffffffffffff1673ffffffffffffffffffffffffffffffffffffffff1681526020019081526020016000205414612875576040517f08c379a000000000000000000000000000000000000000000000000000000000815260040161286c90614b80565b60405180910390fd5b81600e60008573ffffffffffffffffffffffffffffffffffffffff1673ffffffffffffffffffffffffffffffffffffffff1681526020019081526020016000206000018190555080600e60008573ffffffffffffffffffffffffffffffffffffffff1673ffffffffffffffffffffffffffffffffffffffff16815260200190815260200160002060030181905550505050565b6006600085815260200190815260200160002060090154600660008681526020019081526020016000206008015460066000878152602001908152602001600020600201546129579190614eac565b6129619190614eac565b8111156129a3576040517f08c379a000000000000000000000000000000000000000000000000000000000815260040161299a90614aa0565b60405180910390fd5b82826040516020016129b69291906147a9565b60405160208183030381529060405280519060200120600860003373ffffffffffffffffffffffffffffffffffffffff1673ffffffffffffffffffffffffffffffffffffffff16815260200190815260200160002060020160008681526020019081526020016000205414612a60576040517f08c379a0000000000000000000000000000000000000000000000000000000008152600401612a5790614c20565b60405180910390fd5b82600860003373ffffffffffffffffffffffffffffffffffffffff1673ffffffffffffffffffffffffffffffffffffffff1681526020019081526020016000206003016000868152602001908152602001600020819055507fdef66c77ffe1a02e4aa7028bba0b6e9919e3f7cbfc96c028d7f06e84db64a0138433604051612ae9929190614d2e565b60405180910390a150505050565b60008511612b3a576040517f08c379a0000000000000000000000000000000000000000000000000000000008152600401612b3190614be0565b60405180910390fd5b843414612b7c576040517f08c379a0000000000000000000000000000000000000000000000000000000008152600401612b7390614c80565b60405180910390fd5b60006007549050876006600083815260200190815260200160002060000181905550336006600083815260200190815260200160002060010160006101000a81548173ffffffffffffffffffffffffffffffffffffffff021916908373ffffffffffffffffffffffffffffffffffffffff160217905550866006600083815260200190815260200160002060020181905550856006600083815260200190815260200160002060030181905550600060066000838152602001908152602001600020600a01819055506000851415612c7657670de0b6b3a76400006006600083815260200190815260200160002060070181905550612c92565b8460066000838152602001908152602001600020600701819055505b6000841415612cc357670de0b6b3a76400006006600083815260200190815260200160002060060181905550612cdf565b8360066000838152602001908152602001600020600601819055505b6000831415612d0a576102586006600083815260200190815260200160002060080181905550612d26565b8260066000838152602001908152602001600020600801819055505b6000821415612d51576102586006600083815260200190815260200160002060090181905550612d6d565b8160066000838152602001908152602001600020600901819055505b600060066000838152602001908152602001600020600501819055506001600754612d989190614eac565b600781905550600060106000838152602001908152602001600020905086816000018190555060008054906101000a900473ffffffffffffffffffffffffffffffffffffffff1673ffffffffffffffffffffffffffffffffffffffff166323b872dd33600160009054906101000a900473ffffffffffffffffffffffffffffffffffffffff168a6040518463ffffffff1660e01b8152600401612e3d939291906147fb565b602060405180830381600087803b158015612e5757600080fd5b505af1158015612e6b573d6000803e3d6000fd5b505050506040513d601f19601f82011682018060405250810190612e8f9190613da0565b507f6de6dd265a66870495db47d80136a9abe827e8d8f6f7dc77dc787a810a99d226898333604051612ec39392919061493c565b60405180910390a1505050505050505050565b6000806000600860008573ffffffffffffffffffffffffffffffffffffffff1673ffffffffffffffffffffffffffffffffffffffff16815260200190815260200160002060000154600860008673ffffffffffffffffffffffffffffffffffffffff1673ffffffffffffffffffffffffffffffffffffffff16815260200190815260200160002060010154600860008773ffffffffffffffffffffffffffffffffffffffff1673ffffffffffffffffffffffffffffffffffffffff168152602001908152602001600020600601549250925092509193909250565b6006600083815260200190815260200160002060040160009054906101000a900473ffffffffffffffffffffffffffffffffffffffff1673ffffffffffffffffffffffffffffffffffffffff163373ffffffffffffffffffffffffffffffffffffffff1614613055576040517f08c379a000000000000000000000000000000000000000000000000000000000815260040161304c90614a40565b60405180910390fd5b6001600860008373ffffffffffffffffffffffffffffffffffffffff1673ffffffffffffffffffffffffffffffffffffffff168152602001908152602001600020600401600084815260200190815260200160002060006101000a81548160ff021916908315150217905550600860008273ffffffffffffffffffffffffffffffffffffffff1673ffffffffffffffffffffffffffffffffffffffff1681526020019081526020016000206005018290806001815401808255809150506001900390600052602060002001600090919091909150557fad445976d756c325343e3cde33ca48c188cf3cd6aef968577b300bafb0a25020828260405161315b929190614d2e565b60405180910390a15050565b600160009054906101000a900473ffffffffffffffffffffffffffffffffffffffff1681565b6001600960003373ffffffffffffffffffffffffffffffffffffffff1673ffffffffffffffffffffffffffffffffffffffff168152602001908152602001600020541461320f576040517f08c379a000000000000000000000000000000000000000000000000000000000815260040161320690614c60565b60405180910390fd5b89600b60008d73ffffffffffffffffffffffffffffffffffffffff1673ffffffffffffffffffffffffffffffffffffffff1681526020019081526020016000206000018190555088600b60008d73ffffffffffffffffffffffffffffffffffffffff1673ffffffffffffffffffffffffffffffffffffffff1681526020019081526020016000206001018190555087600b60008d73ffffffffffffffffffffffffffffffffffffffff1673ffffffffffffffffffffffffffffffffffffffff1681526020019081526020016000206002018190555086600b60008d73ffffffffffffffffffffffffffffffffffffffff1673ffffffffffffffffffffffffffffffffffffffff1681526020019081526020016000206003018190555085600b60008d73ffffffffffffffffffffffffffffffffffffffff1673ffffffffffffffffffffffffffffffffffffffff1681526020019081526020016000206004018190555084600b60008d73ffffffffffffffffffffffffffffffffffffffff1673ffffffffffffffffffffffffffffffffffffffff1681526020019081526020016000206005018190555083600b60008d73ffffffffffffffffffffffffffffffffffffffff1673ffffffffffffffffffffffffffffffffffffffff1681526020019081526020016000206006018190555082600b60008d73ffffffffffffffffffffffffffffffffffffffff1673ffffffffffffffffffffffffffffffffffffffff1681526020019081526020016000206007018190555081600b60008d73ffffffffffffffffffffffffffffffffffffffff1673ffffffffffffffffffffffffffffffffffffffff16815260200190815260200160002060080160006101000a81548160ff02191690831515021790555080600b60008d73ffffffffffffffffffffffffffffffffffffffff1673ffffffffffffffffffffffffffffffffffffffff16815260200190815260200160002060080160016101000a81548160ff021916908315150217905550600d8b9080600181540180825580915050600190039060005260206000200160009091909190916101000a81548173ffffffffffffffffffffffffffffffffffffffff021916908373ffffffffffffffffffffffffffffffffffffffff1602179055506001600c60008d73ffffffffffffffffffffffffffffffffffffffff1673ffffffffffffffffffffffffffffffffffffffff16815260200190815260200160002081905550600f60003373ffffffffffffffffffffffffffffffffffffffff1673ffffffffffffffffffffffffffffffffffffffff1681526020019081526020016000208b9080600181540180825580915050600190039060005260206000200160009091909190916101000a81548173ffffffffffffffffffffffffffffffffffffffff021916908373ffffffffffffffffffffffffffffffffffffffff1602179055507fa1d535b53fb85fad25a9639961384d4622e3876d8bdd858e779e931dd8604d2e8b8a60405161367492919061485b565b60405180910390a15050505050505050505050565b6000600860008473ffffffffffffffffffffffffffffffffffffffff1673ffffffffffffffffffffffffffffffffffffffff168152602001908152602001600020600301600083815260200190815260200160002054905092915050565b6000600860008373ffffffffffffffffffffffffffffffffffffffff1673ffffffffffffffffffffffffffffffffffffffff168152602001908152602001600020600601549050919050565b60011515600860003373ffffffffffffffffffffffffffffffffffffffff1673ffffffffffffffffffffffffffffffffffffffff168152602001908152602001600020600401600085815260200190815260200160002060009054906101000a900460ff161515146137da576040517f08c379a00000000000000000000000000000000000000000000000000000000081526004016137d190614c00565b60405180910390fd5b600660008481526020019081526020016000206008015460066000858152602001908152602001600020600201546138129190614eac565b811115613854576040517f08c379a000000000000000000000000000000000000000000000000000000000815260040161384b90614b40565b60405180910390fd5b81600860003373ffffffffffffffffffffffffffffffffffffffff1673ffffffffffffffffffffffffffffffffffffffff1681526020019081526020016000206002016000858152602001908152602001600020819055507f2e7d6680302440a76b8a673f94bb4245e0106aba81bdb7ee3c92e6610a639fb183336040516138dd929190614d2e565b60405180910390a1505050565b60606005600083815260200190815260200160002080548060200260200160405190810160405280929190818152602001828054801561397f57602002820191906000526020600020905b8160009054906101000a900473ffffffffffffffffffffffffffffffffffffffff1673ffffffffffffffffffffffffffffffffffffffff1681526020019060010190808311613935575b50505050509050919050565b6000806000604184511461399e57600080fd5b60008060006020870151925060408701519150606087015160001a9050601b8160ff1610156139d757601b816139d49190614f02565b90505b8083839550955095505050509193909250565b60405180610160016040528060008019168152602001600073ffffffffffffffffffffffffffffffffffffffff1681526020016000815260200160008152602001600073ffffffffffffffffffffffffffffffffffffffff1681526020016000815260200160008152602001600081526020016000815260200160008152602001600081525090565b60405180610140016040528060008019168152602001600080191681526020016000815260200160008152602001600081526020016000815260200160008152602001600081526020016000151581526020016000151581525090565b6040518060800160405280600081526020016000815260200160008019168152602001600080191681525090565b6000613b11613b0c84614d7c565b614d57565b905082815260208101848484011115613b2d57613b2c615392565b5b613b388482856151d0565b509392505050565b600081359050613b4f816159bb565b92915050565b600081359050613b64816159d2565b92915050565b600081519050613b79816159d2565b92915050565b600081359050613b8e816159e9565b92915050565b600082601f830112613ba957613ba861538d565b5b8135613bb9848260208601613afe565b91505092915050565b600081359050613bd181615a00565b92915050565b600081359050613be681615a17565b92915050565b600060208284031215613c0257613c0161539c565b5b6000613c1084828501613b40565b91505092915050565b60008060008060008060008060008060006101608c8e031215613c3f57613c3e61539c565b5b6000613c4d8e828f01613b40565b9b50506020613c5e8e828f01613b7f565b9a50506040613c6f8e828f01613b7f565b9950506060613c808e828f01613bd7565b9850506080613c918e828f01613bd7565b97505060a0613ca28e828f01613bd7565b96505060c0613cb38e828f01613bd7565b95505060e0613cc48e828f01613bc2565b945050610100613cd68e828f01613bc2565b935050610120613ce88e828f01613b55565b925050610140613cfa8e828f01613b55565b9150509295989b509295989b9093969950565b60008060408385031215613d2457613d2361539c565b5b6000613d3285828601613b40565b9250506020613d4385828601613bd7565b9150509250929050565b600080600060608486031215613d6657613d6561539c565b5b6000613d7486828701613b40565b9350506020613d8586828701613bd7565b9250506040613d9686828701613b7f565b9150509250925092565b600060208284031215613db657613db561539c565b5b6000613dc484828501613b6a565b91505092915050565b60008060408385031215613de457613de361539c565b5b6000613df285828601613b7f565b925050602083013567ffffffffffffffff811115613e1357613e12615397565b5b613e1f85828601613b94565b9150509250929050565b60008060008060808587031215613e4357613e4261539c565b5b6000613e5187828801613b7f565b945050602085013567ffffffffffffffff811115613e7257613e71615397565b5b613e7e87828801613b94565b9350506040613e8f87828801613bd7565b9250506060613ea087828801613bd7565b91505092959194509250565b600080600080600080600060e0888a031215613ecb57613eca61539c565b5b6000613ed98a828b01613b7f565b9750506020613eea8a828b01613bd7565b9650506040613efb8a828b01613bd7565b9550506060613f0c8a828b01613bd7565b9450506080613f1d8a828b01613bd7565b93505060a0613f2e8a828b01613bd7565b92505060c0613f3f8a828b01613bd7565b91505092959891949750929550565b600060208284031215613f6457613f6361539c565b5b6000613f7284828501613bd7565b91505092915050565b60008060408385031215613f9257613f9161539c565b5b6000613fa085828601613bd7565b9250506020613fb185828601613b40565b9150509250929050565b600080600060608486031215613fd457613fd361539c565b5b6000613fe286828701613bd7565b9350506020613ff386828701613b40565b925050604061400486828701613b40565b9150509250925092565b6000806000606084860312156140275761402661539c565b5b600061403586828701613bd7565b935050602061404686828701613b7f565b925050604061405786828701613bd7565b9150509250925092565b6000806000806080858703121561407b5761407a61539c565b5b600061408987828801613bd7565b945050602061409a87828801613bc2565b93505060406140ab87828801613b7f565b92505060606140bc87828801613bd7565b91505092959194509250565b600080604083850312156140df576140de61539c565b5b60006140ed85828601613bd7565b92505060206140fe85828601613bd7565b9150509250929050565b60006141148383614120565b60208301905092915050565b6141298161511f565b82525050565b6141388161511f565b82525050565b600061414982614dbd565b6141538185614de0565b935061415e83614dad565b8060005b8381101561418f5781516141768882614108565b975061418183614dd3565b925050600181019050614162565b5085935050505092915050565b6141a581615131565b82525050565b6141b481615131565b82525050565b6141c38161513d565b82525050565b6141d28161513d565b82525050565b6141e96141e48261513d565b61528c565b82525050565b60006141fa82614dc8565b6142048185614df1565b93506142148185602086016151df565b80840191505092915050565b61422981615188565b82525050565b6142388161519a565b82525050565b61424781615147565b82525050565b61425681615147565b82525050565b61426d61426882615147565b615296565b82525050565b6000614280602483614dfc565b915061428b826153b2565b604082019050919050565b60006142a3601c83614e0d565b91506142ae82615401565b601c82019050919050565b60006142c6603083614dfc565b91506142d18261542a565b604082019050919050565b60006142e9601a83614dfc565b91506142f482615479565b602082019050919050565b600061430c602d83614dfc565b9150614317826154a2565b604082019050919050565b600061432f602f83614dfc565b915061433a826154f1565b604082019050919050565b6000614352603283614dfc565b915061435d82615540565b604082019050919050565b6000614375601383614dfc565b91506143808261558f565b602082019050919050565b6000614398602e83614dfc565b91506143a3826155b8565b604082019050919050565b60006143bb602483614dfc565b91506143c682615607565b604082019050919050565b60006143de601f83614dfc565b91506143e982615656565b602082019050919050565b6000614401603283614dfc565b915061440c8261567f565b604082019050919050565b6000614424602383614dfc565b915061442f826156ce565b604082019050919050565b6000614447603883614dfc565b91506144528261571d565b604082019050919050565b600061446a602583614dfc565b91506144758261576c565b604082019050919050565b600061448d604183614dfc565b9150614498826157bb565b606082019050919050565b60006144b0602283614dfc565b91506144bb82615830565b604082019050919050565b60006144d3603083614dfc565b91506144de8261587f565b604082019050919050565b60006144f6602983614dfc565b9150614501826158ce565b604082019050919050565b6000614519602f83614dfc565b91506145248261591d565b604082019050919050565b600061453c602383614dfc565b91506145478261596c565b604082019050919050565b6101608201600082015161456960008501826141ba565b50602082015161457c6020850182614120565b50604082015161458f6040850182614754565b5060608201516145a26060850182614754565b5060808201516145b56080850182614120565b5060a08201516145c860a0850182614754565b5060c08201516145db60c0850182614754565b5060e08201516145ee60e0850182614754565b50610100820151614603610100850182614754565b50610120820151614618610120850182614754565b5061014082015161462d61014085018261423e565b50505050565b6101408201600082015161464a60008501826141ba565b50602082015161465d60208501826141ba565b5060408201516146706040850182614754565b5060608201516146836060850182614754565b5060808201516146966080850182614754565b5060a08201516146a960a0850182614754565b5060c08201516146bc60c085018261423e565b5060e08201516146cf60e085018261423e565b506101008201516146e461010085018261419c565b506101208201516146f961012085018261419c565b50505050565b6080820160008201516147156000850182614754565b5060208201516147286020850182614754565b50604082015161473b60408501826141ba565b50606082015161474e60608501826141ba565b50505050565b61475d81615171565b82525050565b61476c81615171565b82525050565b61477b8161517b565b82525050565b600061478d82856141ef565b915061479982846141d8565b6020820191508190509392505050565b60006147b5828561425c565b6020820191506147c582846141d8565b6020820191508190509392505050565b60006147e082614296565b91506147ec82846141d8565b60208201915081905092915050565b6000606082019050614810600083018661412f565b61481d602083018561412f565b61482a6040830184614763565b949350505050565b6000604082019050614847600083018561412f565b61485460208301846141ab565b9392505050565b6000604082019050614870600083018561412f565b61487d60208301846141c9565b9392505050565b6000604082019050614899600083018561412f565b6148a66020830184614763565b9392505050565b60006060820190506148c2600083018661412f565b6148cf6020830185614763565b6148dc60408301846141ab565b949350505050565b600060208201905081810360008301526148fe818461413e565b905092915050565b600060208201905061491b60008301846141ab565b92915050565b600060208201905061493660008301846141c9565b92915050565b600060608201905061495160008301866141c9565b61495e6020830185614763565b61496b604083018461412f565b949350505050565b600060808201905061498860008301876141c9565b6149956020830186614772565b6149a260408301856141c9565b6149af60608301846141c9565b95945050505050565b60006020820190506149cd6000830184614220565b92915050565b60006020820190506149e8600083018461422f565b92915050565b6000602082019050614a03600083018461424d565b92915050565b6000606082019050614a1e600083018661424d565b614a2b6020830185614763565b614a386040830184614763565b949350505050565b60006020820190508181036000830152614a5981614273565b9050919050565b60006020820190508181036000830152614a79816142b9565b9050919050565b60006020820190508181036000830152614a99816142dc565b9050919050565b60006020820190508181036000830152614ab9816142ff565b9050919050565b60006020820190508181036000830152614ad981614322565b9050919050565b60006020820190508181036000830152614af981614345565b9050919050565b60006020820190508181036000830152614b1981614368565b9050919050565b60006020820190508181036000830152614b398161438b565b9050919050565b60006020820190508181036000830152614b59816143ae565b9050919050565b60006020820190508181036000830152614b79816143d1565b9050919050565b60006020820190508181036000830152614b99816143f4565b9050919050565b60006020820190508181036000830152614bb981614417565b9050919050565b60006020820190508181036000830152614bd98161443a565b9050919050565b60006020820190508181036000830152614bf98161445d565b9050919050565b60006020820190508181036000830152614c1981614480565b9050919050565b60006020820190508181036000830152614c39816144a3565b9050919050565b60006020820190508181036000830152614c59816144c6565b9050919050565b60006020820190508181036000830152614c79816144e9565b9050919050565b60006020820190508181036000830152614c998161450c565b9050919050565b60006020820190508181036000830152614cb98161452f565b9050919050565b600061016082019050614cd66000830184614552565b92915050565b600061014082019050614cf26000830184614633565b92915050565b6000608082019050614d0d60008301846146ff565b92915050565b6000602082019050614d286000830184614763565b92915050565b6000604082019050614d436000830185614763565b614d50602083018461412f565b9392505050565b6000614d61614d72565b9050614d6d8282615212565b919050565b6000604051905090565b600067ffffffffffffffff821115614d9757614d9661535e565b5b614da0826153a1565b9050602081019050919050565b6000819050602082019050919050565b600081519050919050565b600081519050919050565b6000602082019050919050565b600082825260208201905092915050565b600081905092915050565b600082825260208201905092915050565b600081905092915050565b6000614e2382615147565b9150614e2e83615147565b9250817f7fffffffffffffffffffffffffffffffffffffffffffffffffffffffffffffff03831360008312151615614e6957614e686152d1565b5b817f8000000000000000000000000000000000000000000000000000000000000000038312600083121615614ea157614ea06152d1565b5b828201905092915050565b6000614eb782615171565b9150614ec283615171565b9250827fffffffffffffffffffffffffffffffffffffffffffffffffffffffffffffffff03821115614ef757614ef66152d1565b5b828201905092915050565b6000614f0d8261517b565b9150614f188361517b565b92508260ff03821115614f2e57614f2d6152d1565b5b828201905092915050565b6000614f4482615147565b9150614f4f83615147565b925082614f5f57614f5e615300565b5b600160000383147f800000000000000000000000000000000000000000000000000000000000000083141615614f9857614f976152d1565b5b828205905092915050565b6000614fae82615171565b9150614fb983615171565b925082614fc957614fc8615300565b5b828204905092915050565b6000614fdf82615147565b9150614fea83615147565b9250827f7fffffffffffffffffffffffffffffffffffffffffffffffffffffffffffffff0482116000841360008413161615615029576150286152d1565b5b817f80000000000000000000000000000000000000000000000000000000000000000583126000841260008413161615615066576150656152d1565b5b827f800000000000000000000000000000000000000000000000000000000000000005821260008413600084121616156150a3576150a26152d1565b5b827f7fffffffffffffffffffffffffffffffffffffffffffffffffffffffffffffff05821260008412600084121616156150e0576150df6152d1565b5b828202905092915050565b60006150f682615171565b915061510183615171565b925082821015615114576151136152d1565b5b828203905092915050565b600061512a82615151565b9050919050565b60008115159050919050565b6000819050919050565b6000819050919050565b600073ffffffffffffffffffffffffffffffffffffffff82169050919050565b6000819050919050565b600060ff82169050919050565b6000615193826151ac565b9050919050565b60006151a5826151ac565b9050919050565b60006151b7826151be565b9050919050565b60006151c982615151565b9050919050565b82818337600083830152505050565b60005b838110156151fd5780820151818401526020810190506151e2565b8381111561520c576000848401525b50505050565b61521b826153a1565b810181811067ffffffffffffffff8211171561523a5761523961535e565b5b80604052505050565b600061524e82615171565b91507fffffffffffffffffffffffffffffffffffffffffffffffffffffffffffffffff821415615281576152806152d1565b5b600182019050919050565b6000819050919050565b6000819050919050565b60006152ab82615147565b91506152b683615147565b9250826152c6576152c5615300565b5b828207905092915050565b7f4e487b7100000000000000000000000000000000000000000000000000000000600052601160045260246000fd5b7f4e487b7100000000000000000000000000000000000000000000000000000000600052601260045260246000fd5b7f4e487b7100000000000000000000000000000000000000000000000000000000600052603260045260246000fd5b7f4e487b7100000000000000000000000000000000000000000000000000000000600052604160045260246000fd5b600080fd5b600080fd5b600080fd5b600080fd5b6000601f19601f8301169050919050565b7f4f6e6c79206d616e616765722063616e2063616c6c20746869732066756e637460008201527f696f6e2e00000000000000000000000000000000000000000000000000000000602082015250565b7f19457468657265756d205369676e6564204d6573736167653a0a333200000000600082015250565b7f54686520726573756c742063616e6e6f742062652072657665616c656420626560008201527f666f726520746865206578706972792e00000000000000000000000000000000602082015250565b7f506c6179657220616c726561647920726567697374657265642e000000000000600082015250565b7f54686520766f74652063616e6e6f742062652072657665616c6564206166746560008201527f7220746865206578706972792e00000000000000000000000000000000000000602082015250565b7f54686520726567697374726174696f6e206469646e277420726563656976652060008201527f74686520636f6d6d69746d656e742e0000000000000000000000000000000000602082015250565b7f54686520636f6d6d69746d656e742073686f756c64206265206772656174657260008201527f207468616e207468652070656e616c74792e0000000000000000000000000000602082015250565b7f4e6f20636c61696d61626c6520746f6b656e7300000000000000000000000000600082015250565b7f54686520726567697374726174696f6e206964656e746974792076657269666960008201527f636174696f6e206661696c65642e000000000000000000000000000000000000602082015250565b7f54686520706c617965722063616e6e6f7420766f74652061667465722065787060008201527f6972792e00000000000000000000000000000000000000000000000000000000602082015250565b7f506c61796572206e6f7420616464656420746f207468652073797374656d2e00600082015250565b7f4f6e6c792070726f6f662066726f6d206120726567697374657265642070726960008201527f6e7465722063616e2062652061646465642e0000000000000000000000000000602082015250565b7f506c6179657220616c726561647920616464656420746f20746865207379737460008201527f656d2e0000000000000000000000000000000000000000000000000000000000602082015250565b7f54686520766f74696e6720697320616c72656164792066696e6973686564206160008201527f6e6420726573756c747320617265206465636c617265642e0000000000000000602082015250565b7f54686520636f6d6d69746d656e742073686f756c64206265206d6f726520746860008201527f616e20302e000000000000000000000000000000000000000000000000000000602082015250565b7f54686520706c617965722063616e20636f6d6d6974206f6e6c79207768656e2060008201527f6d616e6167657220636f6e6669726d732064657369676e2065786368616e676560208201527f2e00000000000000000000000000000000000000000000000000000000000000604082015250565b7f54686520706c6179657220646964206e6f7420636f6d6d697420746f2074686960008201527f732e000000000000000000000000000000000000000000000000000000000000602082015250565b7f4f6e6c79207265676973746572656420706c617965722063616e20616464207060008201527f726f6f66206f66207072696e7465722e00000000000000000000000000000000602082015250565b7f4f6e6c79207265676973746572656420706c617965722063616e20616464206160008201527f207072696e7465722e0000000000000000000000000000000000000000000000602082015250565b7f54686520616e6e6f756e63656d656e74206469646e277420726563656976652060008201527f74686520636f6d6d69746d656e742e0000000000000000000000000000000000602082015250565b7f4e6f206d6f726520726567697374726174696f6e73206172652061636365707460008201527f65642e0000000000000000000000000000000000000000000000000000000000602082015250565b6159c48161511f565b81146159cf57600080fd5b50565b6159db81615131565b81146159e657600080fd5b50565b6159f28161513d565b81146159fd57600080fd5b50565b615a0981615147565b8114615a1457600080fd5b50565b615a2081615171565b8114615a2b57600080fd5b5056fea2646970667358221220af3feb639c74b7a70195d79c5959c4a9c10697767723270156f8843e1242ca9f64736f6c63430008070033",
  "immutableReferences": {},
  "source": "/*# coding=utf-8\n############################################################################################\n##\n# Copyright (C) 2021-2022 Nachiket Tapas,Michele Arena\n##\n# Licensed under the Apache License, Version 2.0 (the \"License\");\n# you may not use this file except in compliance with the License.\n# You may obtain a copy of the License at\n##\n# http://www.apache.org/licenses/LICENSE-2.0\n##\n# Unless required by applicable law or agreed to in writing, software\n# distributed under the License is distributed on an \"AS IS\" BASIS,\n# WITHOUT WARRANTIES OR CONDITIONS OF ANY KIND, either express or implied.\n# See the License for the specific language governing permissions and\n# limitations under the License.\n##\n############################################################################################\n*/\n\n\n/**\n * @file marketplace.sol\n * @author Nachiket Tapas <ntapas@unime.it>\n * @date created 01 Jun 2020\n * @date last modified 09 Jul 2020\n * @SPDX-License-Identifier: UNLICENSED\n */\n//TODO FARE LA CLAIM PER LE PERSONE CHE HANNO UN BALANCE POSITIVO\nimport { AntoTokenSale } from \"./AntoTokenSale.sol\";\nimport { TestToken } from \"./TestToken.sol\";\npragma solidity ^0.8.7;\npragma experimental ABIEncoderV2;\n\ncontract designVoting{\n\n    TestToken public ContractToken;\n    AntoTokenSale public SaleContract;\n    // The status tells the state of the voting on the design\n    // 0: voting\n    // 1: finished\n    struct designState\n    {\n        bytes32 filehash;\n        address vendor;\n        uint256 timestamp;\n        uint256 balance;\n        address manager;\n        uint256 status;\n        uint256 taup;\n        uint256 taur;\n        uint256 deltaExp;\n        uint256 deltaReveal;\n        int result;\n    }\n\n    //The vote is considered as follows\n    // 0 : no vote. maybe due to time expired\n    // -1 : invalid design\n    // 1 : valid design\n\n    struct playerState\n    {\n        int256 reputation;\n        uint256 weight;\n        mapping ( uint256 => bytes32 ) commitments;\n        mapping ( uint256 => int ) votes;\n\n\n\n\n        mapping ( uint256 => bool ) received;\n        uint256[] designes;\n        uint256 balance;\n    }\n\n    //information about the print begin,the print end and design name\n    struct printingProcess\n    {\n\n        uint256 startTimestamp;\n        uint256 endTimestamp;\n        bytes32 printingdataHash;\n        bytes32 designHash;\n\n    }\n\n    //Printer details\n    struct printerDetails\n    {\n        bytes32 make;\n        bytes32 name;\n        uint strength;    // values: Very High = 3, High = 2, Medium =1 , Low = 0\n        uint flexibility; // values: Very High = 3, High = 2, Medium =1 , Low = 0\n        uint durability;  // values: Very High = 3, High = 2, Medium =1 , Low = 0\n        uint difficulty;  // values: Very High = 3, High = 2, Medium =1 , Low = 0\n        int printTemperature;\n        int bedTemperature;\n        bool soluble;\n        bool foodSafety;\n    }\n\n    //Proof of printing\n    //This structure contains the player address who prints the design\n    //using the printer addressed by printer address. The proof of file\n    //is represented by IPFS file hash.\n    mapping ( uint => mapping ( address => mapping ( address => bytes32 ))) private printingProof;\n\n    //Mapping if the proof exists\n    mapping ( uint => mapping ( address => mapping ( address => bool ))) private isProof;\n\n    //Mapping of design identified by design index and collection of players indexes registered to vote\n    mapping (uint256 => mapping (address => uint)) private checkPlayers;\n    mapping (uint256 => address[]) private regPlayers;\n\n    //Design details indexed by design index\n    mapping (uint256 => designState) private designes;\n    uint256 private numDesignes = 0;\n\n    //Player details indexed by player address\n    mapping (address => playerState) private players;\n    mapping (address => uint) private isPlayer;\n    address[] private playerAddresses;\n\n    //Printer details indexed by printer address\n    mapping (address => printerDetails) private printers;\n    mapping (address => uint) private isPrinter;\n    address[] private printerAddresses;\n\n\n    //Printing procesthe printer addresss indexed by\n    mapping (address => printingProcess) private printersWork;\n\n    //Printer player mapping\n    mapping (address => address[]) private userPrinters;\n\n    //Mapping to track number of token for design\n    mapping(uint256 => designToken) trackDesignToken;\n    //address[] private playerDesign;\n\n    struct designToken {\n\n    uint256 committment;\n    mapping(address => uint256) stakes;\n    address[] totalPlayers;\n}\n\n    //Notifications for successful completion of events\n    event newDesignAvailable(bytes32 file_hash, uint256 design_number, address creator);\n    event resultCalculated(bytes32 file_hash, uint256 design_number, address creator);\n    event newPlayerAddition(address player_address, bool status);\n    event newPlayerRegistration(address player_address, uint256 design_number, bool status);\n    event playerDesignReceived(uint256 design_number, address player_address);\n    event playerCommitted(uint256 design_number, address player_address);\n    event playerRevealed(uint256 design_number, address player_address);\n    event votingResult(int result);\n\n    event newPrinterAddition(address printer, bytes32 name);\n    event proofAdded( uint256 design_number, address player_address, address printer_address);\n\n    event tempOutput(address _output);//, uint256 timestamp, uint256 expiry, uint256 balance);\n\n    //The commitment is send via the value field in the remix. If the sent value matches the commitment parameter,\n    //the contract announces the availability of new design for verification.\n    function announce(bytes32 _fileHash, uint256 _timestamp, uint256 _commitment, /*address _manager*/ uint256 _taur, uint256 _taup, uint256 _deltaExp, uint256 _deltaReveal)\n        public payable\n    {\n        //Check for positive commitment\n        require(_commitment > 0, \"The commitment should be more than 0.\");\n\n        //Check if the commitment parameter matches the commiment sent to the contract.\n        require(msg.value == _commitment, \"The announcement didn't receive the commitment.\"); //chiedere a nachiket\n        //require(_commitment <= ContractToken.balanceOf(msg.sender), \"doesn't have enough tokens\");\n\n        //Design index\n        uint256 j = numDesignes;\n\n        //Design file hash from IPFS\n        designes[j].filehash = _fileHash;\n\n        //Design creator\n        designes[j].vendor = msg.sender;\n\n        //Creation timestamp received from the js script\n        designes[j].timestamp = _timestamp;\n\n        //Commitment\n        designes[j].balance = _commitment;\n\n        //Set a manager\n        //designes[j].manager = _manager;\n\n        //Set result to zero\n        designes[j].result = 0;\n\n        //Setting the value for reward\n        if (_taur == 0) {\n            designes[j].taur = 1000000000000000000; //ContractToken.totalSupply();\n        } else {\n            designes[j].taur = _taur;\n        }\n\n        //Setting the value for penalty\n        if (_taup == 0) {\n            designes[j].taup = 1000000000000000000; ////ContractToken.totalSupply();\n        } else {\n            designes[j].taup = _taup;\n        }\n\n        //Setting the value for expiry\n        if (_deltaExp == 0) {\n            designes[j].deltaExp = 600;\n        } else {\n            designes[j].deltaExp = _deltaExp;\n        }\n\n        //Setting the value for reveal\n        if (_deltaReveal == 0) {\n            designes[j].deltaReveal = 600;\n        } else {\n            designes[j].deltaReveal = _deltaReveal;\n        }\n\n        //Set the status to be created\n        designes[j].status = 0;\n\n        //Incrementing the design index\n        numDesignes = numDesignes + 1;\n\n        designToken storage _design = trackDesignToken[j];\n        _design.committment = _commitment;\n\n\n        ContractToken.transferFrom(msg.sender, address(SaleContract), _commitment);\n        //Emitting notification for new design creation.\n        //Verifiers receiving the notification can participate in the process\n        //Filehash to ensure file integrity\n        //Index to use for search\n        //Vendor address for source verification\n        emit newDesignAvailable(_fileHash, j, msg.sender);\n    }\n\n    //Reader function to get number of designes\n    function getNumDesignes() public view returns (uint256) {\n        return numDesignes;\n    }\n\n    //Reader function to get designe details at _index\n    function getDesigne(uint256 _index) public view returns (designState memory) {\n        return designes[_index];\n    }\n\n    //Function to add players to the system. This does not mean the player is registering to vote.\n    //function addPlayer(bytes32 _hashMsg, bytes memory _signature) public {\n    function addPlayer(bytes32 _hashMsg, bytes memory _signature) public {\n        //Check for identity of the user registering\n        (uint8 _v, bytes32 _r, bytes32 _s) = splitSignature(_signature);\n        bytes32 prefixedHash = keccak256(abi.encodePacked(\"\\x19Ethereum Signed Message:\\n32\", _hashMsg));\n        require(ecrecover(prefixedHash, _v, _r, _s) == msg.sender, \"The registration identity verification failed.\");\n\n        //Check for existing player\n        require( isPlayer [ msg.sender ] == 0, \"Player already added to the system.\");\n\n        //Push Player address\n        playerAddresses.push ( msg.sender );\n\n        //Set player to 1 to denote that player is added to the system\n        isPlayer [ msg.sender ] = 1;\n\n        //Initialize player requesting registration\n        players[msg.sender].reputation = 1;\n        players[msg.sender].weight = 1;\n\n        //Event for successful registration\n        emit newPlayerAddition(msg.sender, true);\n\n    }\n\n    //Reader function to get number of players\n    function getNumPlayers() public view returns (uint256) {\n        return playerAddresses.length;\n    }\n\n    //Reader function to get player's addresses\n    function getPlayerAddresses() public view returns (address[] memory) {\n        return playerAddresses;\n    }\n\n    //Reader function to get player details for _playerAddress.\n    //This does not include the vote, commitment, and design file received status\n    function getPlayerDetails(address _playerAddress) public view returns ( int256, uint256, uint256 ) {\n        return ( players[_playerAddress].reputation, players[_playerAddress].weight, players[_playerAddress].balance );\n    }\n\n    //Get commitment corresponding to design number and player\n    function getPlayerCommitment(address _playerAddress, uint256 _designNo) public view returns ( bytes32 ) {\n        return ( players[_playerAddress].commitments[_designNo] );\n    }\n\n    //Get vote corresponding to design number and player\n    function getPlayerVote(address _playerAddress, uint256 _designNo) public view returns ( int ) {\n        return ( players[_playerAddress].votes[_designNo] );\n    }\n\n    //Check file received status corresponding to design number and player\n    function isFileReceived(address _playerAddress, uint256 _designNo) public view returns ( bool ) {\n        return ( players[_playerAddress].received[_designNo] );\n    }\n\n    //This function can be considered as expression of interest to take part in the voting and not to be confused with player registration to the system.\n    function register(bytes32 _hashMsg, bytes memory _signature, uint256 _designNo, uint256 _commitment)\n        public payable\n    {\n        //Check of player is added to the system\n        require(isPlayer [ msg.sender ] == 1, \"Player not added to the system.\");\n\n        //Check for identity of the user registering\n        (uint8 _v, bytes32 _r, bytes32 _s) = splitSignature(_signature);\n        bytes memory prefix = \"\\x19Ethereum Signed Message:\\n32\";\n        bytes32 prefixedHash = keccak256(abi.encodePacked(prefix, _hashMsg));\n        require(ecrecover(prefixedHash, _v, _r, _s) == msg.sender, \"The registration identity verification failed.\");\n\n        //Check for positive commitment\n        require(_commitment > 0, \"The commitment should be more than 0.\");\n\n        //Check if the commitment parameter matches the commiment sent to the contract.\n        require(msg.value == _commitment, \"The registration didn't receive the commitment.\");\n\n        //Check if the commitment is less than penalty\n        require(_commitment >= designes[_designNo].taup, \"The commitment should be greater than the penalty.\");\n        //require(_commitment <= ContractToken.balanceOf(msg.sender), \"doesn't have enough tokens\");\n        //Check if the required number of verifiers are already meet\n        require(regPlayers[_designNo].length < designes[_designNo].balance / designes[_designNo].taur, \"No more registrations are accepted.\");\n\n        //Check if already registered\n        require(checkPlayers[_designNo][msg.sender] == 0, \"Player already registered.\");\n\n        //Deposit the commitment into the wallet of the contract owner (token)\n        ContractToken.transfer(address(SaleContract), _commitment);\n\n        //Incrementing the player index and registration\n        checkPlayers[_designNo][msg.sender] = 1;\n        regPlayers[_designNo].push(msg.sender);\n        players[msg.sender].balance += msg.value;\n\n        trackDesignToken[_designNo].totalPlayers.push(msg.sender);\n        trackDesignToken[_designNo].stakes[msg.sender] = _commitment;\n\n        //Event for successful registration for a design\n        emit newPlayerRegistration(msg.sender, _designNo, true);\n    }\n\n    //Reader function to get number of registered players\n    function getNumRegPlayers(uint256 _designNo) public view returns (uint256) {\n        return regPlayers[_designNo].length;\n    }\n\n    //Reader function to get registered player's addresses\n    function getRegPlayerAddresses(uint256 _designNo) public view returns (address[] memory) {\n        return regPlayers[_designNo];\n    }\n\n    function setReceived(uint256 _designNo, address _playerAddress)\n        public payable\n    {\n        //Check if the sender is the manager responsible for secure exchange.\n        require(msg.sender == designes[_designNo].manager, \"Only manager can call this function.\");\n\n        //The manager sets the design received to be true\n        players[_playerAddress].received[_designNo] = true;\n        players[_playerAddress].designes.push(_designNo);\n\n        //An event is emitted after successful\n        emit playerDesignReceived(_designNo, _playerAddress);\n    }\n\n    function commit(uint256 _designNo, bytes32 _cryptoCommitment, uint256 _timestamp)\n        public\n    {\n        //Check if the player received the design and ready to vote.\n        require(players[msg.sender].received[_designNo] == true, \"The player can commit only when manager confirms design exchange.\");\n\n        //Check for expiry\n        require(_timestamp <= designes[_designNo].timestamp + designes[_designNo].deltaExp, \"The player cannot vote after expiry.\");\n\n        //Store the commitment by the player\n        players[msg.sender].commitments[_designNo] = _cryptoCommitment;\n\n        //An event emitted after successful commitment of vote\n        emit playerCommitted(_designNo, msg.sender);\n    }\n\n    function reveal(uint256 _designNo, int _vote, bytes32 _nonce, uint256 _timestamp)\n        public\n    {\n        //Check for expiry. Beyond the expiry, the player revealing will have\n        //a picture of the voting trend and thus, can change for profit.\n        require(_timestamp <= designes[_designNo].timestamp + designes[_designNo].deltaExp + designes[_designNo].deltaReveal, \"The vote cannot be revealed after the expiry.\");\n\n        //Check the commitment\n        require(players[msg.sender].commitments[_designNo] == keccak256(abi.encodePacked(_vote, _nonce)), \"The player did not commit to this.\");\n\n        //Store the vote by the player\n        players[msg.sender].votes[_designNo] = _vote;\n\n        //An event emitted after successful reveal of vote\n        emit playerRevealed(_designNo, msg.sender);\n    }\n    //TODO Chiedere come viene utilizzata la variabile result\n    function calculateResult(uint256 _designNo, uint256 _timestamp)\n        public\n    {\n        //Check the status of the voting. If already completed, then this function is not run.\n        require(designes[_designNo].status == 0, \"The voting is already finished and results are declared.\");\n\n        //Check for expiry. The result cannot be calculated before the expiry.\n        require(_timestamp > designes[_designNo].timestamp + designes[_designNo].deltaExp + designes[_designNo].deltaReveal, \"The result cannot be revealed before the expiry.\");\n\n        //Since solidity do not support floating point arithematic, we will store the value as quotient and remainder.\n        //Here we are calculating the numerator and denominator.\n        int256 playerNum = 0;\n        int256 playerDen = 0;\n        for ( uint256 i = 0; i < regPlayers[_designNo].length; i++ ) {\n            playerNum  += ( players[regPlayers[_designNo][i]].votes[_designNo] * int( players[regPlayers[_designNo][i]].weight ) * players[regPlayers[_designNo][i]].reputation );\n            playerDen  += int ( players[regPlayers[_designNo][i]].weight ) * players[regPlayers[_designNo][i]].reputation;\n        }\n\n        //Here we are just calculating the remainder as the value varies from 0 to 1.\n        //The borderline case of same positive and negative votes is considered as correct (To be decided later)\n        int256 finalScoreQuo = ( playerNum + playerDen ) / ( 2 * playerDen );\n        int256 finalScoreRem = ( playerNum + playerDen ) % ( 2 * playerDen );\n        int result = 0;\n        if ( finalScoreQuo == 1 || finalScoreRem >= playerDen ) {\n            designes[_designNo].result = 1;\n        } else if ( finalScoreRem < playerDen ) {\n            designes[_designNo].result = -1;\n        }\n        result = designes[_designNo].result; //PROBABILE SOLUZIONE\n\n        for ( uint256 i = 0; i < regPlayers[_designNo].length; i++ ) {\n            if ( players[regPlayers[_designNo][i]].votes[_designNo] > 0 ) {\n                //Set new reputation\n                players[regPlayers[_designNo][i]].reputation += players[regPlayers[_designNo][i]].votes[_designNo] * result;\n\n                //Set new weight (we only use the player weight. The total weight, which is used as normalization factor is eliminated in the final calculation.)\n                players[regPlayers[_designNo][i]].weight += uint ( players[regPlayers[_designNo][i]].votes[_designNo] * result );\n            } else {\n                //Set new reputation\n                players[regPlayers[_designNo][i]].reputation += -1 * result;\n\n                //Set new weight (we only use the player weight. The total weight, which is used as normalization factor is eliminated in the final calculation.)\n                players[regPlayers[_designNo][i]].weight += uint ( -1 * result );\n            }\n        }\n\n        for ( uint256 i = 0; i < regPlayers[_designNo].length; i++ ) {\n            if ( players[regPlayers[_designNo][i]].votes[_designNo] * result == 1) { // rimuovere * result\n                players[regPlayers[_designNo][i]].balance += designes[_designNo].taur;\n                //ContractToken.transferFrom(address(SaleContract), regPlayers[_designNo][i], designes[_designNo].taur);\n                designes[_designNo].balance -= designes[_designNo].taur;\n            } else {\n                players[regPlayers[_designNo][i]].balance -= designes[_designNo].taup;\n                //ContractToken.transferFrom(regPlayers[_designNo][i], address(SaleContract), designes[_designNo].taup);\n                designes[_designNo].balance += designes[_designNo].taup;\n\n            }\n        }\n\n        //Set the status to finished\n        designes[_designNo].status = 1;\n\n        //Emit the notification for the result\n        emit votingResult(result);\n    }\n\n    //This is a utility function to extract ECDSA parameters from the signature.\n    function splitSignature(bytes memory sig)\n    private\n    pure\n    returns (uint8, bytes32, bytes32)\n    {\n        require(sig.length == 65);\n\n        bytes32 r;\n        bytes32 s;\n        uint8 v;\n\n        assembly {\n            // first 32 bytes, after the length prefix\n            r := mload(add(sig, 32))\n            // second 32 bytes\n            s := mload(add(sig, 64))\n            // final byte (first byte of the next 32 bytes)\n            v := byte(0, mload(add(sig, 96)))\n        }\n\n        if (v < 27) {\n            v += 27;\n        }\n\n        return (v, r, s);\n    }\n\n    function addPrinter(address _printerAddr, bytes32 _make, bytes32 _name, uint _strength, uint _flexibility, uint _durability, uint _difficulty, int _printTemperature,\n    int _bedTemperature, bool _soluble, bool _foodSafety)\n    public\n    {\n        //Check for existing player\n\n        require( isPlayer [ msg.sender ] == 1, \"Only registered player can add a printer.\");\n\n        //Setting up required properties\n        printers [ _printerAddr ].make = _make;\n        printers [ _printerAddr ].name = _name;\n        printers [ _printerAddr ].strength = _strength;\n        printers [ _printerAddr ].flexibility = _flexibility;\n        printers [ _printerAddr ].durability = _durability;\n        printers [ _printerAddr ].difficulty = _difficulty;\n        printers [ _printerAddr ].printTemperature = _printTemperature;\n        printers [ _printerAddr ].bedTemperature = _bedTemperature;\n        printers [ _printerAddr ].soluble = _soluble;\n        printers [ _printerAddr ].foodSafety = _foodSafety;\n\n        //Add printer address to the array\n        printerAddresses.push( _printerAddr );\n        isPrinter [ _printerAddr ] = 1;\n\n        //Mapping the player and the printer/s\n        userPrinters [ msg.sender ].push( _printerAddr );\n\n        //Emit the successfull addition\n        emit newPrinterAddition(_printerAddr, _name);\n    }\n\n    //Reader function to get number of printers registered by a user\n    function getUserPrinters(address _userAddress) public view returns (address[] memory) {\n        return userPrinters[ _userAddress ];\n    }\n\n    //Reader function to get printer details of printer identified by address\n    function getPrinterDetails(address _printerAddr) public view returns (printerDetails memory) {\n        return printers[ _printerAddr ];\n    }\n\n    //Reader function for number of printers registered\n    function getNumPrinters() public view returns (uint256) {\n        return printerAddresses.length;\n    }\n    //Reader function to get balance of players\n    function getBalance(address player) public view returns (uint256 amount) {\n        amount =  players[player].balance;\n        return amount;\n    }\n\n    event TokensClaimed(address indexed player, uint256 amount);\n\n\n    function claimTokens() public {\n\n            uint256 claimableTokens = getBalance(msg.sender);\n            require(claimableTokens > 0, \"No claimable tokens\");\n\n            //_claimedTokens[players[i]] += claimableTokens; Should be implemented a function that returns the claimed tokens\n            ContractToken.transferFrom(address(SaleContract),msg.sender, claimableTokens);\n\n            //An event emitted after successful claim of tokens\n            emit TokensClaimed(msg.sender, claimableTokens);\n\n    }\n\n\n\n    /*\n    function addProof( uint256 _designNo, address _printerAddress, bytes32 _fileHash ) public {\n\n        //Check for existing player\n        require( isPlayer [ msg.sender ] == 1, \"Only registered player can add proof of printer.\");\n\n        //Check for existing printer\n        require( isPrinter [ _printerAddress ] == 1, \"Only proof from a registered printer can be added.\");\n\n        //Add the proof\n        printingProof [ _designNo ][ msg.sender ][ _printerAddress ] = _fileHash;\n        isProof [ _designNo ][ msg.sender ][ _printerAddress ] = true;\n\n        //Emit event\n        emit proofAdded( _designNo, msg.sender, _printerAddress);\n    }\n    */\n    function get_printingProcess(address _printerAddress)public view returns(printingProcess memory){\n        return printersWork[_printerAddress] ;\n    }\n\n    function printingBegin(address _printerAddress,uint256 startTimestamp,bytes32 designHash) public {\n\n        require( isPlayer [ msg.sender ] == 1, \"Only registered player can add proof of printer.\");\n\n        //Check for an existing printer\n        require( isPrinter [ _printerAddress ] == 1, \"Only proof from a registered printer can be added.\");\n\n        printersWork[_printerAddress].startTimestamp=startTimestamp;\n        printersWork[_printerAddress].designHash=designHash;\n    }\n\n\n    function end_of_printing(address _printerAddress,uint256 endTimestamp,bytes32 printingdataHash) public {\n\n        require( isPlayer [ msg.sender ] == 1, \"Only registered player can add proof of printer.\");\n\n        //Check for an existing printer\n        require( isPrinter [ _printerAddress ] == 1, \"Only proof from a registered printer can be added.\");\n\n        printersWork[_printerAddress].endTimestamp=endTimestamp;\n        printersWork[_printerAddress].printingdataHash=printingdataHash;\n\n    }\n\n\n    //Function to check if the researcher added the proof from the printer\n    function isProofPresent( uint256 _designNo, address _userAddress, address _printerAddress ) public view returns (bool) {\n        return isProof [ _designNo ][ _userAddress ][ _printerAddress ];\n    }\n}\n",
  "sourcePath": "C:\\Users\\anton\\Desktop\\Documenti-Tesi-Antonio\\AF2 TOKEN E APP\\Truffle\\contracts\\Design_voting_with_printer_details.sol",
  "compiler": {
    "name": "solc",
    "version": "0.8.7+commit.e28d00a7.Emscripten.clang"
  },
  "schemaVersion": "3.4.4",
  "updatedAt": "2022-02-14T16:50:57.619Z",
  "networkType": "ethereum",
  "devdoc": {
    "kind": "dev",
    "methods": {},
    "version": 1
  },
  "userdoc": {
    "kind": "user",
    "methods": {},
    "version": 1
  }
}